{
  "_format": "hh-sol-artifact-1",
  "contractName": "TopTokens",
  "sourceName": "contracts/TopTokens.sol",
  "abi": [
    {
      "inputs": [],
      "stateMutability": "nonpayable",
      "type": "constructor"
    },
    {
      "anonymous": false,
      "inputs": [
        {
          "indexed": true,
          "internalType": "address",
          "name": "previousOwner",
          "type": "address"
        },
        {
          "indexed": true,
          "internalType": "address",
          "name": "newOwner",
          "type": "address"
        }
      ],
      "name": "OwnershipTransferred",
      "type": "event"
    },
    {
      "anonymous": false,
      "inputs": [
        {
          "indexed": true,
          "internalType": "address",
          "name": "token",
          "type": "address"
        },
        {
          "indexed": false,
          "internalType": "string",
          "name": "symbol",
          "type": "string"
        },
        {
          "indexed": false,
          "internalType": "uint256",
          "name": "price",
          "type": "uint256"
        }
      ],
      "name": "TokenAdded",
      "type": "event"
    },
    {
      "anonymous": false,
      "inputs": [
        {
          "indexed": true,
          "internalType": "address",
          "name": "token",
          "type": "address"
        }
      ],
      "name": "TokenRemoved",
      "type": "event"
    },
    {
      "anonymous": false,
      "inputs": [
        {
          "indexed": true,
          "internalType": "address",
          "name": "updater",
          "type": "address"
        },
        {
          "indexed": false,
          "internalType": "uint256",
          "name": "timestamp",
          "type": "uint256"
        }
      ],
      "name": "TokensUpdated",
      "type": "event"
    },
    {
      "inputs": [],
      "name": "getTokenCount",
      "outputs": [
        {
          "internalType": "uint256",
          "name": "",
          "type": "uint256"
        }
      ],
      "stateMutability": "view",
      "type": "function"
    },
    {
      "inputs": [],
      "name": "getTokens",
      "outputs": [
        {
          "components": [
            {
              "internalType": "address",
              "name": "tokenAddress",
              "type": "address"
            },
            {
              "internalType": "string",
              "name": "symbol",
              "type": "string"
            },
            {
              "internalType": "uint256",
              "name": "price",
              "type": "uint256"
            },
            {
              "internalType": "uint256",
              "name": "timestamp",
              "type": "uint256"
            }
          ],
          "internalType": "struct TopTokens.Token[]",
          "name": "",
          "type": "tuple[]"
        }
      ],
      "stateMutability": "view",
      "type": "function"
    },
    {
      "inputs": [],
      "name": "owner",
      "outputs": [
        {
          "internalType": "address",
          "name": "",
          "type": "address"
        }
      ],
      "stateMutability": "view",
      "type": "function"
    },
    {
      "inputs": [],
      "name": "renounceOwnership",
      "outputs": [],
      "stateMutability": "nonpayable",
      "type": "function"
    },
    {
      "inputs": [
        {
          "internalType": "address[]",
          "name": "_tokens",
          "type": "address[]"
        },
        {
          "internalType": "string[]",
          "name": "_symbols",
          "type": "string[]"
        },
        {
          "internalType": "uint256[]",
          "name": "_prices",
          "type": "uint256[]"
        }
      ],
      "name": "saveTokens",
      "outputs": [],
      "stateMutability": "nonpayable",
      "type": "function"
    },
    {
      "inputs": [
        {
          "internalType": "address",
          "name": "newOwner",
          "type": "address"
        }
      ],
      "name": "transferOwnership",
      "outputs": [],
      "stateMutability": "nonpayable",
      "type": "function"
    }
  ],
  "bytecode": "0x608060405234801561001057600080fd5b5061001a33610023565b60018055610073565b600080546001600160a01b038381166001600160a01b0319831681178455604051919092169283917f8be0079c531659141344cd1fd0a4f28419497f9722a3daafe3b4186f6b6457e09190a35050565b610dcb806100826000396000f3fe608060405234801561001057600080fd5b50600436106100625760003560e01c8063715018a61461006757806378a89567146100715780638da5cb5b1461008757806390588923146100a2578063aa6ca808146100b5578063f2fde38b146100ca575b600080fd5b61006f6100dd565b005b6002546040519081526020015b60405180910390f35b6000546040516001600160a01b03909116815260200161007e565b61006f6100b03660046109e0565b6100f1565b6100bd610581565b60405161007e9190610a7a565b61006f6100d8366004610b47565b61069c565b6100e5610715565b6100ef600061076f565b565b6100f9610715565b6101016107bf565b848314801561010f57508481145b6101595760405162461bcd60e51b8152602060048201526016602482015275082e4e4c2f2e640d8cadccee8d040dad2e6dac2e8c6d60531b60448201526064015b60405180910390fd5b600a85111561019c5760405162461bcd60e51b815260206004820152600f60248201526e546f6f206d616e7920746f6b656e7360881b6044820152606401610150565b6101a4610818565b60005b60ff811686111561053a576000878760ff84168181106101c9576101c9610b77565b90506020020160208101906101de9190610b47565b6001600160a01b03160361022c5760405162461bcd60e51b8152602060048201526015602482015274496e76616c696420746f6b656e206164647265737360581b6044820152606401610150565b600085858360ff1681811061024357610243610b77565b90506020028101906102559190610b8d565b9050116102935760405162461bcd60e51b815260206004820152600c60248201526b115b5c1d1e481cde5b589bdb60a21b6044820152606401610150565b600083838360ff168181106102aa576102aa610b77565b90506020020135116102ee5760405162461bcd60e51b815260206004820152600d60248201526c496e76616c696420707269636560981b6044820152606401610150565b6002604051806080016040528089898560ff1681811061031057610310610b77565b90506020020160208101906103259190610b47565b6001600160a01b0316815260200187878560ff1681811061034857610348610b77565b905060200281019061035a9190610b8d565b8080601f016020809104026020016040519081016040528093929190818152602001838380828437600092019190915250505090825250602001858560ff86168181106103a9576103a9610b77565b602090810292909201358352504291810191909152825460018082018555600094855293829020835160049092020180546001600160a01b0319166001600160a01b0390921691909117815590820151919290919082019061040b9082610c6f565b506040820151816002015560608201518160030155505060016003600089898560ff1681811061043d5761043d610b77565b90506020020160208101906104529190610b47565b6001600160a01b031681526020810191909152604001600020805460ff1916911515919091179055868660ff831681811061048f5761048f610b77565b90506020020160208101906104a49190610b47565b6001600160a01b03167f4af7419360b60cfcf01ac8a5c1487814e666a0af47877d73e82476772ac9150f86868460ff168181106104e3576104e3610b77565b90506020028101906104f59190610b8d565b86868660ff1681811061050a5761050a610b77565b9050602002013560405161052093929190610d2f565b60405180910390a28061053281610d68565b9150506101a7565b5060405142815233907fa4f4df726d60e3886846ea1ee4281c6404b9090c5520f72046c34ccbcb20c60e9060200160405180910390a261057960018055565b505050505050565b60606002805480602002602001604051908101604052809291908181526020016000905b8282101561069357600084815260209081902060408051608081019091526004850290910180546001600160a01b0316825260018101805492939192918401916105ee90610bea565b80601f016020809104026020016040519081016040528092919081815260200182805461061a90610bea565b80156106675780601f1061063c57610100808354040283529160200191610667565b820191906000526020600020905b81548152906001019060200180831161064a57829003601f168201915b5050505050815260200160028201548152602001600382015481525050815260200190600101906105a5565b50505050905090565b6106a4610715565b6001600160a01b0381166107095760405162461bcd60e51b815260206004820152602660248201527f4f776e61626c653a206e6577206f776e657220697320746865207a65726f206160448201526564647265737360d01b6064820152608401610150565b6107128161076f565b50565b6000546001600160a01b031633146100ef5760405162461bcd60e51b815260206004820181905260248201527f4f776e61626c653a2063616c6c6572206973206e6f7420746865206f776e65726044820152606401610150565b600080546001600160a01b038381166001600160a01b0319831681178455604051919092169283917f8be0079c531659141344cd1fd0a4f28419497f9722a3daafe3b4186f6b6457e09190a35050565b6002600154036108115760405162461bcd60e51b815260206004820152601f60248201527f5265656e7472616e637947756172643a207265656e7472616e742063616c6c006044820152606401610150565b6002600155565b60005b60025460ff821610156108e85760006003600060028460ff168154811061084457610844610b77565b60009182526020808320600492909202909101546001600160a01b031683528201929092526040019020805460ff19169115159190911790556002805460ff831690811061089457610894610b77565b600091825260208220600490910201546040516001600160a01b03909116917f4c910b69fe65a61f7531b9c5042b2329ca7179c77290aa7e2eb3afa3c8511fd391a2806108e081610d68565b91505061081b565b506100ef60028054600082556004029060005260206000209081019061071291905b808211156109465780546001600160a01b0319168155600061092f600183018261094a565b50600060028201819055600382015560040161090a565b5090565b50805461095690610bea565b6000825580601f10610966575050565b601f01602090049060005260206000209081019061071291905b808211156109465760008155600101610980565b60008083601f8401126109a657600080fd5b50813567ffffffffffffffff8111156109be57600080fd5b6020830191508360208260051b85010111156109d957600080fd5b9250929050565b600080600080600080606087890312156109f957600080fd5b863567ffffffffffffffff80821115610a1157600080fd5b610a1d8a838b01610994565b90985096506020890135915080821115610a3657600080fd5b610a428a838b01610994565b90965094506040890135915080821115610a5b57600080fd5b50610a6889828a01610994565b979a9699509497509295939492505050565b60006020808301818452808551808352604092508286019150828160051b8701018488016000805b84811015610b3857898403603f19018652825180516001600160a01b031685528881015160808a870181905281519087018190528491905b80831015610af8578183018c015188840160a00152918b0191610ada565b87810160a0908101879052848c01518c8a015260609485015194890194909452988b0198601f01601f191690960190910194505091870191600101610aa2565b50919998505050505050505050565b600060208284031215610b5957600080fd5b81356001600160a01b0381168114610b7057600080fd5b9392505050565b634e487b7160e01b600052603260045260246000fd5b6000808335601e19843603018112610ba457600080fd5b83018035915067ffffffffffffffff821115610bbf57600080fd5b6020019150368190038213156109d957600080fd5b634e487b7160e01b600052604160045260246000fd5b600181811c90821680610bfe57607f821691505b602082108103610c1e57634e487b7160e01b600052602260045260246000fd5b50919050565b601f821115610c6a57600081815260208120601f850160051c81016020861015610c4b5750805b601f850160051c820191505b8181101561057957828155600101610c57565b505050565b815167ffffffffffffffff811115610c8957610c89610bd4565b610c9d81610c978454610bea565b84610c24565b602080601f831160018114610cd25760008415610cba5750858301515b600019600386901b1c1916600185901b178555610579565b600085815260208120601f198616915b82811015610d0157888601518255948401946001909101908401610ce2565b5085821015610d1f5787850151600019600388901b60f8161c191681555b5050505050600190811b01905550565b604081528260408201528284606083013760006060848301015260006060601f19601f8601168301019050826020830152949350505050565b600060ff821660ff8103610d8c57634e487b7160e01b600052601160045260246000fd5b6001019291505056fea2646970667358221220e00f4ca496626423a100c1d923e6ca84d1eeed558d8623bee26b1a1610d72f6264736f6c63430008140033",
  "linkReferences": {},
  "deployedLinkReferences": {}
}